S0210000666F6F7462616C6C5F61746D656761385F72656365697665722E73726563F6
S113000012C02CC02BC02AC029C028C027C026C0BB
S113001025C024C023C022C021C020C01FC01EC0D0
S11300201DC01CC01BC011241FBECFE5D4E0DEBF21
S1130030CDBF10E0A0E6B0E0E0E2FBE002C0059036
S11300400D92AA36B107D9F720E0AAE6B0E001C0C4
S11300501D92A237B207E1F724D260C5D1CF0F9326
S11300601F93CF93DF931F92CDB7DEB7898307E049
S113007010E0898190E0002E02C0959587950A943E
S1130080E2F780FF03C081E393D302C080E390D3FF
S11300900150110970F78AE08BD30F90DF91CF9153
S11300A01F910F910895BB9ABA9AB99AA09AA89AE7
S11300B0A19AA998A29AAA9AA49AAC9880EA8FBD08
S11300C08FB582608FBD8AE18EBD84EF91E097BDCC
S11300D086BD08954F925F926F927F928F929F9206
S11300E0AF92BF92CF92DF92EF92FF922B013C012D
S11300F049015A0120E030E0A9015ED388231CF4B1
S1130100A89AA99802C0A898A99A20E030E0A90169
S1130110C501B40151D388231CF4AA9AAC9802C037
S1130120AA98AC9AC0906A00D0906B00E0906C00E2
S1130130F0906D00C501B401ABD39B01772324F487
S113014022273327261B370BB901330F880B990B52
S1130150D2D3A70196017FD42CE53FE842E85FE3C0
S11301607AD420E030E048EC52E42AD391D34B0116
S11301705C01C301B2018CD39B01772324F42227B1
S11301803327261B370BB901330F880B990BB3D3D5
S1130190A701960160D420E030E048EC52E410D38B
S11301A077D39B0145EF841641E094062CF044EF8D
S11301B051E05BBD4ABD02C09BBC8ABC253F3140B7
S11301C02CF084EF91E099BD88BD02C079BD68BD73
S11301D0FF90EF90DF90CF90BF90AF909F908F9063
S11301E07F906F905F904F90089580916F0083FF90
S11301F013C080916F0081FF0FC080E090E0A8ECF5
S1130200B2E480936A0090936B00A0936C00B09367
S11302106D008AE024DFC2C080916F0083FF13C0A9
S113022080916F0080FF0FC080E090E0A4EBB2E407
S113023080936A0090936B00A0936C00B0936D0060
S113024089E00DDFABC080916F0083FF0FC080E0B9
S113025090E0A0EAB2E480936A0090936B00A093CC
S11302606C00B0936D0088E0FADE98C080916F0056
S113027082FF17C080916F0081FF13C080916F00CF
S113028080FF0FC080E090E0ACE8B2E480936A00A5
S113029090936B00A0936C00B0936D0087E0DFDE59
S11302A07DC080916F0082FF13C080916F0081FF39
S11302B00FC080E090E0A0E7B2E480936A009093DE
S11302C06B00A0936C00B0936D0086E0C8DE66C03E
S11302D080916F0082FF13C080916F0080FF0FC078
S11302E080E090E0A8E4B2E480936A0090936B000D
S11302F0A0936C00B0936D0085E0B1DE4FC0809197
S11303006F0082FF0FC080E090E0A0E2B2E480932F
S11303106A0090936B00A0936C00B0936D0084E02E
S11303209EDE3CC080916F0081FF13C080916F00FE
S113033080FF0FC080E090E0A0EFB1E480936A00FA
S113034090936B00A0936C00B0936D0083E087DE04
S113035025C080916F0081FF0FC080E090E0A0EA8B
S1130360B1E480936A0090936B00A0936C00B09307
S11303706D0082E074DE12C080916F0080FF0EC0B9
S113038080E090E0A0E2B1E480936A0090936B0077
S1130390A0936C00B0936D0081E061DE80916F00EA
S11303A0882374F480916F0085FF0AC020E030E058
S11303B046E953E460E070E08AEF93E48BDE08954D
S11303C080916F00882374F480916F0084FF0AC0C9
S11303D020E030E04AEF53E460E070E08AE793E421
S11303E079DE089580916F0086FF0EC080916F00C2
S11303F085FF0AC020E030E04FEA53EC60E070E093
S11304008AEF93EC67DE089580916F0086FF0EC03B
S113041080916F0084FF0AC020E030E04AEF53EC83
S113042060E070E08FEA93EC55DE089580916F00F0
S1130430882344F420E030E04AEF53E4CA01B901D0
S113044049DE089580916F0086FF08C020E030E007
S11304504AEF53ECCA01B9013DDE089580916F0063
S113046085FF0AC020E030E046E953EC60E070E02C
S113047086E993E42FDE089580916F0084FF0AC01B
S113048020E030E046E953E460E070E086E993EC74
S113049021DE089520E030E0A901CA01B9011ADE85
S11304A0089560E875E280E090E079D1FCDD17D032
S11304B062E082E0C0D085E690E042D180E690E040
S11304C031D10DD18823E9F38FE690E08FD0CFE6C8
S11304D0D0E08881C4DD89DE8881C1DDF2CF3ED1E0
S11304E080E042D181E046D10895EF92FF921F93BC
S11304F0CF93DF93E82E80E043D1C7E0D0E010E053
S1130500F12C97010C2E02C0359527950A94E2F739
S113051020FF03C081E03AD102C080E037D181E0FE
S11305202FD1110F39D18111116080E029D1219788
S113053040F7812FDF91CF911F91FF90EF900895A5
S1130540CF9380E017D18FEFD0DFC82F81E012D195
S11305508C2FCF910895EF92FF920F931F93CF9317
S1130560DF93442399F0EC01062F172F4150E42E1A
S1130570F12C2FEFE21AF20AE80EF91E8991B5DF89
S1130580F80181938F01CE15DF05C1F7DF91CF917B
S11305901F910F91FF90EF9008950F931F93CF93A6
S11305A0DF93662369F0EC016150062F10E00F5FC2
S11305B01F4F080F191F899198DFC017D107D9F76A
S11305C0DF91CF911F910F910895CF93DF93C82F9F
S11305D0D62F80E0CFD08C2F8F71806286DF8D2F55
S11305E084DF81E0C7D0DF91CF910895CF93DF936B
S11305F0EC0180E0BFD081E678DF40917100BE015C
S1130600CE01A9DF81E0B6D060E487E0DEDFDF91D0
S1130610CF91089580E0AED082EE67DF81E0AAD06A
S113062060E787E0D2DF80E09FD06BE080E0CDDF41
S113063081E09AD0089560937100682F85E0C5DF4A
S113064060E081E1C2DF6091710082E1BEDF60E0C1
S113065083E1BBDF60E084E1B8DF60E085E1B5DF22
S113066060E086E1B2DF66E086E0AFDF68E080E06C
S1130670ACDF63E081E0A9DF63E082E0A6DF6FE442
S113068084E0A3DF60E08CE1A0DFC4DF08950F9372
S11306901F93CF93DF93082FEB01142F80E06AD0D0
S11306A0802F8F7122DF412FBE01CE0154DF81E004
S11306B061D0DF91CF911F910F910895CF93DF9374
S11306C01F92CDB7DEB741E0BE016F5F7F4F87E178
S11306D0DEDF898181700F90DF91CF91089530DF43
S11306E086FD06C0EBDF91E0882319F090E001C09D
S11306F091E0892F08950F931F93CF93DF93C82F11
S11307008B01D42F80E036D08C2F8F718062EDDE88
S11307106D2FC80142DF81E02DD0DF91CF911F9171
S11307200F910895CF93DF93EC0180E01DD045E055
S1130730BE018BE0E0DF81E017D0DF91CF91089517
S1130740CF93DF93EC0145E0BC018AE0D4DF45E0C0
S1130750BE0180E1D0DFDF91CF9108958F9A8A9A0C
S11307608E9A8B9A8D980895882311F0979A0895FC
S113077097980895882311F0929A0895929808956D
S1130780882311F0969A089596980895882311F075
S1130790939A08959398089580B38072089583E39B
S11307A089B98AB188618AB980B5866880BD08959F
S11307B08CB95D9BFECF0895D9D008F481E00895EB
S11307C00CD00FC107D140F0FED030F021F45F3FD0
S11307D019F0F0C0511139C1F3C014D198F3992321
S11307E0C9F35523B1F3951B550BBB27AA276217F1
S11307F07307840738F09F5F5F4F220F331F441F36
S1130800AA1FA9F333D00E2E3AF0E0E830D091506D
S11308105040E695001CCAF729D0FE2F27D0660F5A
S1130820771F881FBB1F261737074807AB07B0E899
S113083009F0BB0B802DBF01FF2793585F4F2AF0AF
S11308409E3F510568F0B6C000C15F3FECF3983E8F
S1130850DCF3869577956795B795F7959F5FC9F70C
S1130860880F911D9695879597F90895E1E0660F95
S1130870771F881FBB1F621773078407BA0720F00E
S1130880621B730B840BBA0BEE1F88F7E095089577
S113089004D06894B111D9C00895BCD088F09F5792
S11308A090F0B92F9927B751A0F0D1F0660F771FB8
S11308B0881F991F1AF0BA95C9F712C0B13081F098
S11308C0C3D0B1E00895C0C0672F782F8827B85FE0
S11308D039F0B93FCCF3869577956795B395D9F7F9
S11308E03EF490958095709561957F4F8F4F9F4F03
S11308F00895E89409C097FB3EF49095809570950F
S113090061957F4F8F4F9F4F9923A9F0F92F96E957
S1130910BB279395F695879577956795B795F111CC
S1130920F8CFFAF4BB0F11F460FF1BC06F5F7F4F69
S11309308F4F9F4F16C0882311F096E911C077237B
S113094021F09EE8872F762F05C0662371F096E884
S1130950862F70E060E02AF09A95660F771F881F53
S1130960DAF7880F9695879597F90895990F0008F7
S1130970550FAA0BE0E8FEEF16161706E807F9076D
S1130980C0F012161306E407F50798F0621B730B08
S1130990840B950B39F40A2661F0232B242B252B89
S11309A021F408950A2609F4A140A6958FEF811D2C
S11309B0811D089597F99F6780E870E060E00895CD
S11309C09FEF80EC089500240A9416161706180663
S11309D00906089500240A9412161306140605063F
S11309E00895092E0394000C11F4882352F0BB0FD0
S11309F040F4BF2B11F460FF04C06F5F7F4F8F4F33
S1130A009F4F089557FD9058440F551F59F05F3F6D
S1130A1071F04795880F97FB991F61F09F3F79F01C
S1130A2087950895121613061406551FF2CF46959E
S1130A30F1DF08C0161617061806991FF1CF869520
S1130A407105610508940895E894BB276627772704
S1130A50CB0197F908950BD0C4CFB5DF28F0BADFE6
S1130A6018F0952309F0A6CFABCF1124EECFCADF3F
S1130A70A0F3959FD1F3950F50E0551F629FF001AD
S1130A80729FBB27F00DB11D639FAA27F00DB11D06
S1130A90AA1F649F6627B00DA11D661F829F22278F
S1130AA0B00DA11D621F739FB00DA11D621F839F16
S1130AB0A00D611D221F749F3327A00D611D231FEC
S1130AC0849F600D211D822F762F6A2F11249F573A
S1130AD050408AF0E1F088234AF0EE0FFF1FBB1F5D
S1130AE0661F771F881F91505040A9F79E3F5105FC
S1130AF070F060CFAACF5F3FECF3983EDCF38695AD
S1130B0077956795B795F795E7959F5FC1F7FE2BA6
S1130B10880F911D9695879597F90895F894FFCFBE
S10D0B20E7E7E7E7E7D7D7D7D7D711
S9030000FC
