S01D0000666F6F7462616C6C5F61746D656761385F7472616E2E737265639A
S113000012C02CC02BC02AC029C028C027C026C0BB
S113001025C024C023C022C021C020C01FC01EC0D0
S11300201DC01CC01BC011241FBECFE5D4E0DEBF21
S1130030CDBF10E0A0E6B0E0E0E0F6E002C005903D
S11300400D92AA36B107D9F720E0AAE6B0E001C0C4
S11300501D92AE36B207E1F702D1D0C2D1CF80648F
S113006087B9369A349BFECF84B195B10895CF9267
S1130070DF92EF92FF92CF93DF9310926B0080E0B8
S1130080EEDFEC0181E0EBDF7C0182E0E8DF25E8D4
S1130090E21623E0F20628F0EBE6F0E02081206887
S11300A020832AEFE216F10428F4EBE6F0E0208145
S11300B020642083853823E0920728F0EBE6F0E003
S11300C02081206220838A3F910528F4EBE6F0E04A
S11300D0808180618083BE0180E090E02ED26B013C
S11300E07C012AE939E94CEC52E423D2181634F0A5
S11300F0EBE6F0E080818160808386C02AE939E9FB
S11301004CE453E4C701B60114D2181634F0EBE6FC
S1130110F0E080818260808377C024E333E749E99B
S113012053E4C701B60105D2181634F0EBE6F0E04B
S113013080818360808368C02AE939E94CEC53E408
S1130140C701B601F6D1181634F0EBE6F0E0808171
S11301508460808359C020E030EC4FEF53E4C70142
S1130160B601E7D1181634F0EBE6F0E08081856043
S113017080834AC024E333E749E154E4C701B6016C
S1130180D8D1181634F0EBE6F0E0808186608083E5
S11301903BC027E636E043E354E4C701B601C9D1C6
S11301A0181634F0EBE6F0E08081876080832CC081
S11301B02AE939E94CE454E4C701B601BAD1181666
S11301C034F0EBE6F0E08081886080831DC02DEC84
S11301D03CE246E654E4C701B601ABD1181634F04C
S11301E0EBE6F0E08081896080830EC020E030EC93
S11301F04FE754E4C701B6019CD118162CF0EBE686
S1130200F0E080818A608083DF91CF91FF90EF904E
S1130210DF90CF9008950F931F93CF93DF931F9296
S1130220CDB7DEB7898307E010E0898190E0002E26
S113023002C0959587950A94E2F780FF03C081E395
S113024074D102C080E371D10150110970F78AE0C2
S11302506CD10F90DF91CF911F910F910895A39AC4
S1130260AB9A3E9A86B1836886B960E875E280E00D
S113027090E052D127D062E082E0ACD085E690E0F5
S11302801CD180E690E00BD12FEF80E792E0215063
S113029080409040E1F700C0000088E080936B004C
S11302A0E6DE8BE690E0C9D049D08111FDCF4DD078
S11302B04CD0811102C0AB9801C0AB9A80916B0005
S11302C0AADFEECF08D180E00CD181E010D10895EF
S11302D0EF92FF921F93CF93DF93E82E80E00DD12E
S11302E0C7E0D0E010E0F12C97010C2E02C0359548
S11302F027950A94E2F720FF03C081E004D102C0ED
S113030080E001D181E0F9D0110F03D18111116096
S113031080E0F3D0219740F7812FDF91CF911F9197
S1130320FF90EF900895CF9380E0E1D08FEFD0DF7E
S1130330C82F81E0DCD08C2FCF910895F4DF982F63
S1130340907381E009F080E00895EDDF85FD04C03D
S113035084FD04C08FEF089580E0089581E008953E
S11303600F931F93CF93DF93662369F0EC016150E1
S1130370062F10E00F5F1F4F080F191F8991A8DF88
S1130380C017D107D9F7DF91CF911F910F9108952D
S1130390CF93DF93C82FD62F80E0A9D08C2F8F71F5
S11303A0806296DF8D2F94DF81E0A1D0DF91CF9121
S11303B0089580E09CD082EE8BDF81E098D060E7E6
S11303C087E0E6DF80E08DD06BE080E0E1DF81E074
S11303D088D0089560936D00682F85E0D9DF60E0D0
S11303E081E1D6DF60916D0082E1D2DF60E083E1DC
S11303F0CFDF60E084E1CCDF60E085E1C9DF60E06D
S113040086E1C6DF66E086E0C3DF68E080E0C0DF47
S113041063E081E0BDDF63E082E0BADF6FE484E0A3
S1130420B7DF60E08CE1B4DFC4DF089560E787E004
S1130430AFDF6AE080E0ACDF0895CF93DF93EC0197
S113044080E04FD0F3DF80E052D081EE41DF81E0E5
S11304504ED080E04CD080EA3BDF60916D00CE014D
S11304607FDF81E044D081E03CD0DF91CF910895DB
S11304700F931F93CF93DF93C82F8B01D42F80E06A
S113048036D08C2F8F71806223DF6D2FC80168DF17
S113049081E02DD0DF91CF911F910F910895CF93DB
S11304A0DF93EC0180E01DD045E0BE018BE0E0DF8E
S11304B081E017D0DF91CF910895CF93DF93EC01C2
S11304C045E0BC018AE0D4DF45E0BE0180E1D0DF35
S11304D0DF91CF9108958F9A8A9A8E9A8B9A8D98EC
S11304E00895882311F0979A08959798089588237A
S11304F011F0929A089592980895882311F0969A8B
S1130500089596980895882311F0939A08959398DE
S1130510089580B38072089583E389B98AB18861AC
S11305208AB980B5866880BD08958CB95D9BFECF7D
S1130530089540D008F481E00895E89409C097FB39
S11305403EF490958095709561957F4F8F4F9F4FA6
S11305509923A9F0F92F96E9BB279395F6958795EA
S113056077956795B795F111F8CFFAF4BB0F11F4AD
S113057060FF1BC06F5F7F4F8F4F9F4F16C0882354
S113058011F096E911C0772321F09EE8872F762F8A
S113059005C0662371F096E8862F70E060E02AF0CB
S11305A09A95660F771F881FDAF7880F96958795B7
S11305B097F90895990F0008550FAA0BE0E8FEEF8C
S11305C016161706E807F907C0F012161306E40713
S11305D0F50798F0621B730B840B950B39F40A260C
S11305E061F0232B242B252B21F408950A2609F4EA
S11305F0A140A6958FEF811D811D0895F894FFCF2A
S10D0600D7D7D7D7D7E7E7E7E7E736
S9030000FC
